:020000040000FA
:1000000088470020E5430000F5270000E5100000C8
:10001000E5100000E5100000E5100000E51000000C
:10002000000000000000000000000000E5100000DB
:10003000E510000000000000E5100000554D000034
:10004000917D0000817E00003D7E0000F57C000077
:10005000917D0000817E00003D7E0000F57C000067
:10006000256700002567000025670000F57800007F
:10007000F5780000F5780000F578000025670000AD
:100080000000000000000000000000000000000070
:100090000000000000000000000000000000000060
:1000A0000000000000000000000000000000000050
:1000B0000000000000000000000000000000000040
:1000C0000000000000000000000000000000000030
:1000D0000000000000000000000000000000000020
:1000E0000000000000000000000000000000000010
:1000F0000000000000000000000000000000000000
:1001000000000000000000000000000000000000EF
:1001100000000000000000000000000000000000DF
:1001200000000000000000000000000000000000CF
:1001300000000000000000000000000000000000BF
:1001400000000000000000000000000000000000AF
:10015000000000000000000000000000000000009F
:10016000000000000000000000000000000000008F
:10017000000000000000000000000000000000007F
:10018000000000000000000000000000000000006F
:10019000000000000000000000000000000000005F
:1001A000000000000000000000000000000000004F
:1001B000000000000000000000000000000000003F
:1001C0002DE9F05F0546002092469B46884606468C
:1001D000814640241BE0284641464746224600F01F
:1001E0008EFA53465A46C01A914110D3114618460A
:1001F000224600F075FA2D1A67EB01084F46224699
:100200000120002100F06CFA17EB00094E41201E7E
:10021000A4F10104DFDC484631462A464346BDE8E6
:10022000F09F40EA01039B0703D009E008C9121FB1
:1002300008C0042AFAD203E011F8013B00F8013BA0
:10024000521EF9D27047D2B201E000F8012B491ECC
:10025000FBD270470022F6E710B513460A46044663
:100260001946FFF7F0FF204610BD30B505462A4677
:100270000B4612F8010B13F8014B08B1A042F8D05D
:100280001CB1002802D06D1CF1E7284630BD421C8D
:1002900010F8011B0029FBD1801A704710B500220D
:1002A00000E0521C835C8C5CA34201D1002BF8D18E
:1002B000D8B2E1B2401A10BD2DE9FE4F804681EA66
:1002C0000300C00F0C46009021F0004123F00045D0
:1002D000B8EB0200A94105D24046214690461C4693
:1002E0000B46024623F00040104347D0270DC7F3CA
:1002F0000A00C3F30A510290401A019040286BDAB9
:10030000C3F3130040F4801B0098924620B10023F1
:10031000D2EB030A63EB0B0B01985946C0F1400284
:10032000504600F0DDF906460D4650465946019A02
:1003300000F0F5F910EB08006141002487EA115242
:1003400084EAE7731A4340D0009A62B3019A012A03
:100350004FEA075215DC001B61EB02014FF000422F
:1003600002EA0752CDE90042001C41F580113246F5
:100370002B4600F02CFA03B0BDE8F08F4046214632
:10038000F9E7001B61EB0201001C41F58013001826
:100390005B412018A2F5001747EB030140EAD57036
:1003A000B6196D4111E06D084FEA360645EAC07591
:1003B0004FEA0752001B61EB0201001C41F580115E
:1003C00049084FEA30000019514132462B4603B02C
:1003D000BDE8F04F00F0ECB9009801224000002386
:1003E000D0EB020263EBE073009821464FEAE07421
:1003F000B8EB000061EB0401E9E783F000435BE741
:1004000081F0004158E72DE9FE4F81EA030404F032
:10041000004421F0004100944FF0000B23F0004312
:1004200050EA01045ED052EA03045BD0C3F30A54DD
:10043000C1F30A552C44A4F2F3340194A0FB0254F6
:10044000C1F3130141F48011C3F3130343F4801388
:1004500001FB024400FB034E840A970A44EA8154DC
:1004600047EA8357A4FB076802958D0A05FB0785B9
:100470004FEA932C04FB0C542705029D4FEA0658C3
:1004800047EA1637B5EB08056EEB070C870E920EA0
:1004900047EA811742EA8312A7FB0201B6EB0B0180
:1004A00064EB00042B0D43EA0C335E1844EB1C5044
:1004B000DA465146E7FB0201C5F313044FEA0B335A
:1004C00043EA14534FEA0432019C43EA0603A4F1C1
:1004D0000C040294009CCDE900B400F078F903B05C
:1004E000BDE8F08F00200146F9E72DE9F04D81EAE3
:1004F000030404F0004B21F0004514464FF0000ABD
:1005000023F0004150EA050220D054EA01021DD038
:10051000C5F30A570246C5F31303C1F31300C1F331
:100520000A5640F4801543F48013A7EB0608101B0D
:10053000D64608F2FD3873EB050002D308F1010836
:1005400001E092185B41B8F1000F03DA0020014688
:10055000BDE8F08D00204FF48011064684460EE081
:10056000171B73EB050705D3121B63EB050306434B
:100570004CEA010C49084FEA300092185B4150EAFE
:100580000107EDD152EA030012D082EA040083EAA7
:100590000501084305D0101BAB4106D20122002300
:1005A00006E000224FF0004302E06FF0010253101A
:1005B0001AEB06004CEB085110EB0A0041EB0B0163
:1005C000BDE8F04D00F0F4B830B5041E71F1000440
:1005D00004DB4FF00044404264EB0101141E73F150
:1005E000000405DB1C464FF00043524263EB04035A
:1005F000801A994101D3012030BD002030BD30B5B3
:10060000041E71F1000404DB4FF00044404264EB2F
:100610000101141E73F1000405DB1C464FF000437A
:10062000524263EB0403101A8B4101D3012030BD09
:10063000002030BD0EB5C10F80EAE0700844CA0743
:10064000002140F233438DE80E000A460B4600F0CD
:10065000BEF803B000BD00F0004230F000400AD008
:10066000C10D01F56071C0F3160042EA0151C208E4
:1006700040071143704700200146704701F00043D6
:1006800030B421F0004150EA010206D00A0DA2F573
:100690006072C1F31301002A02DC30BC00207047F5
:1006A000440F44EAC104C100E01830BC00EBC25062
:1006B00000F047B830B50B46014600202022012447
:1006C00009E021FA02F59D4205D303FA02F5491B20
:1006D00004FA02F52844151EA2F10102F1DC30BD36
:1006E000202A04DB203A00FA02F1002070479140F2
:1006F000C2F1200320FA03F3194390407047202AE7
:1007000004DB203A21FA02F00021704721FA02F3BB
:10071000D040C2F120029140084319467047202A78
:1007200006DBCB17203A41FA02F043EAE07306E019
:1007300041FA02F3D040C2F1200291400843194629
:1007400070470029A8BF7047401C490008BF20F02F
:100750000100704710B4B0FA80FC00FA0CF050EAC7
:10076000010404BF10BC704749B1CCF1200421FA48
:1007700004F411FA0CF118BF012121430843A3EB43
:100780000C01CB1D4FEA00614FEA102042BF002050
:1007900010BC704700EBC35010440029A4BF10BC2C
:1007A0007047401C490008BF20F0010010BC704792
:1007B00010B5141E73F1000408DA401C41F1000169
:1007C00092185B411A4301D120F0010010BD2DE9C0
:1007D000F04D92469B4611B1B1FA81F202E0B0FAB7
:1007E00080F220329046FFF77BFF04460F4640EA36
:1007F0000A0041EA0B0153465A46084313D01146FA
:1008000053EA010019D0C8F140025046FFF777FFC4
:1008100005460E46504659464246FFF761FF0843DB
:1008200005D0012004E020463946BDE8F08D0020C7
:10083000054346EAE0762C4337430A986305E40A09
:10084000A0EB08000022FD0A44EA47540A3002D512
:1008500000200146E9E7010510196941DDE9084575
:1008600000196941BDE8F04DA2E7C1F30A52C1F396
:10087000130140F2FF3341F480119A4202DA002062
:100880000146704740F233439A42A2F2334202DCFF
:100890005242FFF734BFFFF723BF000030B5041EFC
:1008A00071F1000404DB4FF00044404264EB0101AD
:1008B000141E73F1000405DB1C464FF00043524246
:1008C00063EB0403994208BF904230BD80B582B00B
:1008D00001F0C2FC8DED010A0198FFF7BCFE41EC6E
:1008E000100B53EC102B4AF61E00C0F2000007F06C
:1008F000E1FBC82006F016FD9DED010A02B080BDA7
:1009000080B584B040F26840C2F20000019040F22D
:100910000B510022039203F097FA019840F20C5118
:100920000291012203F090FA00F00AF8019802996E
:10093000039A03F089FA00F003F804B080BD0000C8
:1009400080B5062007F0ACFB80BD000080B584B008
:1009500003F0EAFE40F26840C2F20000029040F26A
:100960000C510191002203F06FFA019902980122C3
:1009700003F06AFAFFF7E4FFFFE700F089FF0146A2
:100980000020009041B1FFE7BDF80C100020642961
:10099000B8BF01200090FFE70098C00778B1FFE7DB
:1009A000BDF80C000130ADF80C00BDF80C00642857
:1009B00004D1FFE700208DF80F0011E0DDE740F2E1
:1009C0006840C2F2000040F20C51002203F03CFAF1
:1009D000FFF7B6FF03F0B6FE01208DF80F00FFE72A
:1009E0009DF80F0004B080BD80B582B040F2684031
:1009F000C2F20000019040F20B510122009203F07C
:100A000023FA009A019840F20C5103F01DFAFFF707
:100A100097FF02B080BD000080B584B040F268400E
:100A2000C2F20000029040F20B510122019203F049
:100A30000BFA019A029840F20C51039103F004FA68
:100A4000FFF77EFF02980399002203F0FDF904B03E
:100A500080BD000080B584B0002002908DF80E00AB
:100A600003F062FE029A40F26840C2F20000019078
:100A700040F20C5103F0E8F9019840F20B510122C9
:100A800003F0E2F9FFF75CFF02988DF80F00FFE733
:100A90009DF80F0007282DDCFFE79DF80E004000B1
:100AA0008DF80E0040F26840C2F2000040F20C5196
:100AB000012203F0C9F9FFF743FF00F0E9FE38B166
:100AC000FFE79DF80E0040F001008DF80E00FFE7F3
:100AD00040F26840C2F2000040F20C51002203F0E4
:100AE000B3F9FFF72DFFFFE79DF80F0001308DF8F8
:100AF0000F00CDE703F026FE9DF80E0004B080BD88
:100B000080B586B040F26840C2F20000059040F225
:100B10000B5102910122019203F096F9019A059876
:100B200040F20C51039103F08FF9FFF709FF02998E
:100B300005980022049203F087F90399049A059816
:100B400003F082F9FFF7FCFE06B080BD80B586B0E9
:100B500040F26840C2F20000059040F20C5103914F
:100B60000122029203F070F9059840F20B510191B5
:100B70000022049203F068F9FFF7E2FE0199029A5D
:100B8000059803F061F90399049A059803F05CF95C
:100B9000FFF7D6FE06B080BD80B584B08DF80F009B
:100BA00000208DF80E00FFE79DF80E0007283ADCC4
:100BB000FFE79DF80F00000600280AD5FFE740F286
:100BC0006840C2F2000040F20B51012203F03CF9F0
:100BD00009E040F26840C2F2000040F20B510022EE
:100BE00003F032F9FFE740F26840C2F200000190E2
:100BF00040F20C510291012203F026F9FFF7A0FE0A
:100C000001980299002203F01FF9FFF799FE9DF861
:100C10000F0040008DF80F00FFE79DF80E00013037
:100C20008DF80E00C0E740F26840C2F2000040F2CA
:100C30000B51002203F008F9FFF788FE04B080BDD5
:100C400080B586B04FF0804005900020049040F2BF
:100C50008020C2F2000090ED000B8DED020B049A93
:100C6000059B9FED2D0B51EC100BFFF7C6FB9DED87
:100C7000020B41EC110B53EC112B51EC100BFFF755
:100C8000BEFC78B9FFE74AF23840C0F20000806845
:100C9000C36940F26840C2F2000040F20B21012219
:100CA00098472BE040F28020C2F2000090ED000B4C
:100CB0008DED000B049805999FED170B53EC102B4D
:100CC000FFF7FAFA9DED000B41EC110B53EC112BE1
:100CD00051EC100BFFF778FC78B9FFE74AF2384087
:100CE000C0F200008068C36940F26840C2F20000B0
:100CF00040F20B2100229847FFE7FFE740F28020F7
:100D0000C2F2000090ED000B40F26810C2F2000049
:100D100080ED000B06B080BD0000000000004E40DA
:100D200080B582B00090009820B9FFE76FF0150001
:100D300001902EE04AF67110C0F2000000F0B6FDFE
:100D4000014640F28820C2F200000160006850B9FC
:100D5000FFE74AF63F10C0F2000007F0ABF96FF072
:100D60000500019015E040F28820C2F20000006802
:100D7000C168884750B1FFE74AF65A10C0F2000038
:100D800007F098F96FF00400019002E00020019054
:100D9000FFE7019802B080BD80B590B00E900E982C
:100DA00020B9FFE76FF015000F9091E164200D90DE
:100DB000002106910C910B910A9109918DF8231055
:100DC00040F27010C2F200004160016040F28820E1
:100DD000C2F200000790006802699047142006F0F4
:100DE000A1FA079800680269012190471E2007F0C8
:100DF00057F90798006841698847FFE740F2882063
:100E0000C2F200000068017A00200129059006D195
:100E1000FFE70D98002818BF01200590FFE705980F
:100E2000C00770B1FFE740F28820C2F200000068FE
:100E300041698847012007F033F90D9801380D907A
:100E4000DCE70D9820B9FFE76FF004000F903FE159
:100E500064200D9040F28820C2F2000000684169D1
:100E60008847FFE740F28820C2F200000068017A5C
:100E70000020049031B9FFE70D98002818BF012029
:100E80000490FFE70498C00770B1FFE740F28820A4
:100E9000C2F20000006841698847012007F000F9AC
:100EA0000D9801380D90DDE70D9820B9FFE76FF040
:100EB00004000F900CE164200D9040F28820C2F2F3
:100EC0000000006841698847FFE740F28820C2F2CD
:100ED00000000068017A00200129039006D1FFE795
:100EE0000D98002818BF01200390FFE70398C00762
:100EF00070B1FFE740F28820C2F20000006841694B
:100F00008847012007F0CCF80D9801380D90DCE7F8
:100F10000D9820B9FFE76FF004000F90D8E0002093
:100F20008DF82200FFE79DF82200272869DCFFE703
:100F300064200D9040F28820C2F2000000684169F0
:100F40008847FFE740F28820C2F200000068017A7B
:100F50000020029031B9FFE70D98002818BF01204A
:100F60000290FFE70298C00770B1FFE740F28820C7
:100F7000C2F20000006841698847012007F090F83C
:100F80000D9801380D90DDE70D9820B9FFE76FF05F
:100F900004000F909CE01E2007F082F840F28820A9
:100FA000C2F200000190006841698847019800681A
:100FB000007A012811D1FFE740F27011C2F200015E
:100FC00008684A68520042EAD072400001304A6024
:100FD0000860282007F064F80CE040F27011C2F2BB
:100FE00000010A684868400040EAD27052000A6076
:100FF0004860FFE7FFE79DF8220001308DF82200EE
:1010000091E764200D9040F28820C2F20000006851
:1010100041698847FFE740F28820C2F2000000687B
:10102000017A00200129009006D1FFE70D980028E1
:1010300018BF01200090FFE70098C00770B1FFE7DC
:1010400040F28820C2F20000006841698847012010
:1010500007F026F80D9801380D90DCE70D9820B9BF
:10106000FFE76FF004000F9032E040F28820C2F2F8
:1010700000000068026901219047142006F052F92F
:1010800040F27010C2F2000001788DF82310417810
:101090000B9181780C91C178099100790A909DF8A3
:1010A00023000C990A9A11440B9A1144099A11448D
:1010B000884209D1FFE70C980E9908600A980E99AA
:1010C000486000200F9003E06FF004000F90FFE7EE
:1010D0000F9810B080BD000040F23C00C2F200004A
:1010E0007047000000BE704780B582B00190019843
:1010F000C168884750B9FFE70198016842684AF221
:10110000FE70C0F2000006F0D5FF06E04AF61600B9
:10111000C0F2000006F0CEFFFFE7C82006F002F99B
:1011200002B080BD80B504F0BFFF00F071FF002069
:1011300003F04EFC4AF62C00C0F2000006F0BAFFA5
:1011400080BD000080B586B00490049820B9FFE708
:101150006FF01500059060E0049800790146009159
:10116000092856D80099DFE801F0051F3953535379
:10117000535353534AF28042C0F200021068516840
:101180009268126890470390039808B9FFE70AE055
:101190004AF69F10C0F200004AF69021C0F200010A
:1011A000442204F0CDFF35E04AF2F842C0F20002DA
:1011B000106851689268126890470290029808B9C6
:1011C000FFE70AE04AF69F10C0F200004AF69021BD
:1011D000C0F200014A2204F0B3FF1BE04AF2705251
:1011E000C0F200021068516892681268904701903E
:1011F000019808B9FFE70AE04AF69F10C0F2000024
:101200004AF69021C0F20001502204F099FF01E05B
:1012100000E0FFE701200590FFE7059806B080BDDC
:1012200084B0029001910092029820B9FFE76FF01C
:101230001500039010E0019820B9FFE76FF015004A
:10124000039009E0009820B9FFE76FF015000390C4
:1012500002E000980390FFE7039804B07047000095
:1012600080B586B00490049820B9FFE76FF01500B0
:10127000059045E0049800790146019148B1FFE7E7
:10128000019801281ED0FFE701980238082832D3C0
:1012900032E04AF28041C0F200010868896849687A
:1012A00088470390039808B9FFE70AE04AF69F10C1
:1012B000C0F200004AF69021C0F20001662204F05C
:1012C0003FFF1AE04AF2F841C0F20001086889685D
:1012D000496888470290029808B9FFE70AE04AF691
:1012E0009F10C0F200004AF69021C0F200016D226A
:1012F00004F026FF01E000E0FFE700200590FFE793
:10130000059806B080BD000080B586B004900498B2
:1013100020B9FFE76FF0150005907DE00498007993
:101320000146019148B1FFE70198012836D0FFE757
:101330000198023808286AD36AE04AF28041C0F274
:10134000000108688968896888470390039808B98C
:10135000FFE70AE04AF69F10C0F200004AF690212B
:10136000C0F20001832204F0EBFE4AF28041C0F299
:10137000000108688968C96888470390039808B91C
:10138000FFE70AE04AF69F10C0F200004AF69021FB
:10139000C0F20001852204F0D3FE3AE04AF2804018
:1013A000C0F20000806881684AF2F840C0F2000094
:1013B000006888470290029808B9FFE70AE04AF6F9
:1013C0009F10C0F200004AF69021C0F200018C226A
:1013D00004F0B6FE4AF28040C0F200008068C168A6
:1013E0004AF2F840C0F20000006888470290029874
:1013F00008B9FFE70AE04AF69F10C0F200004AF67B
:101400009021C0F200018E2204F09AFE01E000E07B
:10141000FFE700200590FFE7059806B080BD0000BB
:1014200080B586B004900391049820B9FFE76FF06F
:1014300015000590B9E0039820B9FFE76FF015009B
:101440000590B2E0049800790146009150B1FFE7A1
:101450000098012855D0FFE7009802380828C0F00E
:101460009F809EE04AF28041C0F2000108688968CE
:101470008A690399642301FB03F190470290029863
:1014800008B9FFE70AE04AF69F10C0F200004AF6EA
:101490009021C0F20001AC2204F052FE4AF28041D9
:1014A000C0F2000108688968C968884702900298FC
:1014B00008B9FFE70AE04AF69F10C0F200004AF6BA
:1014C0009021C0F20001AE2204F03AFE4AF28041BF
:1014D000C0F200010868896849688847029002984C
:1014E00008B9FFE70AE04AF69F10C0F200004AF68A
:1014F0009021C0F20001B02204F022FE00F058F862
:1015000050E04AF2F841C0F20001086889688A692F
:101510000399642301FB03F190470190019808B9F6
:10152000FFE70AE04AF69F10C0F200004AF6902159
:10153000C0F20001B72204F003FE4AF2F841C0F203
:10154000000108688968C96888470190019808B94E
:10155000FFE70AE04AF69F10C0F200004AF6902129
:10156000C0F20001B92204F0EBFD4AF2F841C0F2EA
:10157000000108688968496888470190019808B99E
:10158000FFE70AE04AF69F10C0F200004AF69021F9
:10159000C0F20001BB2204F0D3FD00F01BF801E013
:1015A00000E0FFE700200590FFE7059806B080BD4A
:1015B000FFE740F2A830C2F200000078C00708B987
:1015C000FFE7F6E740F2A831C2F200010020087000
:1015D00070470000FFE740F2A930C2F20000007837
:1015E000C00708B9FFE7F6E740F2A931C2F20001EF
:1015F000002008707047000080B582B040F26C0097
:10160000C2F20000009003F0AFFD40F24C00C2F2C5
:101610000000019003F0A8FD0098FFF793FD0198EA
:10162000FFF790FD02B080BDD0B502AF8AB047F899
:101630000C0C27F80E1C002047F8280C47F8140C57
:1016400037F80E0C694647F8181C072101EB4001DA
:1016500021F007026946891A8D460A4647F82C2C64
:1016600047F81C0C57F80C0CC36837F80E2C984739
:1016700057F8280C07F81D0CFFE717F81D0C37F872
:101680000E1C013988423FDAFFE717F81D0C0130C4
:1016900007F81E0CFFE717F81E0C37F80E1C8842DF
:1016A0002BDAFFE757F82C1C17F81D0C31F8100047
:1016B00017F81E2C31F81210884217DDFFE757F893
:1016C0002C1C17F81D0C31F8100027F8200C17F807
:1016D0001E0C31F8100017F81D2C21F8120037F8F5
:1016E000200C17F81E2C21F81200FFE7FFE717F86F
:1016F0001E0C013007F81E0CCDE7FFE717F81D0C94
:10170000013007F81D0CB8E7022007F8210CFFE7AD
:1017100017F8210C37F80E1C0239884212DAFFE75D
:1017200057F82C0C17F8211C30F8111057F8140C2E
:10173000084447F8140CFFE717F8210C013007F8AC
:10174000210CE5E757F8140C37F80E1C0439B0FBF0
:10175000F1F000EE100AB8EE400A57F8180C854672
:10176000A7F10804A546D0BD80B582B04AF2E85280
:10177000C0F20002106851689268126890470190A8
:10178000019860B1FFE74AF65D30C0F200004AF60A
:101790007331C0F200011A2206F08CFCFFE74AF216
:1017A000E851C0F20001086889680A6A40F2AC3169
:1017B000C2F2000190470190019860B1FFE74AF63C
:1017C0005D30C0F200004AF67331C0F200011E2203
:1017D00006F070FCFFE74AF2E851C0F20001086829
:1017E0008968496888470190019860B1FFE74AF627
:1017F0005D30C0F200004AF67331C0F200012522CC
:1018000006F058FCFFE7002001F094F902B080BD1B
:1018100085B003900291039820B9FFE76FF015009F
:1018200004902BE00398407920B9FFE76FF00400A3
:10183000049023E040F27820C2F20000006801909A
:101840000298009000984FF6FE71C0F2FF018842A6
:1018500004D8FFE7009801300090FFE7FFE740F26F
:101860007820C2F2000000680199401A009988426D
:1018700001D2FFE7F3E700200490FFE7049805B0EA
:101880007047000040F27820C2F200000068704704
:1018900080B582B040F26840C2F2000040F20B51C5
:1018A00001AA02F0C3FA019802B080BD80B584B0ED
:1018B000029040F29030C2F2000000680190FFE711
:1018C000019870B1FFE7019800680299FEF7CDFC1E
:1018D00018B1FFE70198039006E001988069019034
:1018E000EEE700200390FFE7039804B080BD0000FE
:1018F00080B582B0019040F29030C2F200000068E2
:1019000038B9FFE7019840F29031C2F20001086057
:1019100009E040F29031C2F200010868019A90613A
:1019200001980860FFE70198C168884702B080BD50
:1019300080B582B040F29030C2F2000000680190A1
:101940004AF63F20C0F2000006F0B4FBFFE7019822
:1019500060B1FFE7019801684AF62220C0F200005A
:1019600006F0A8FB019880690190F0E74AF6DC00D8
:10197000C0F2000006F09EFB02B080BD80B540F2D0
:101980002000C2F20000FFF7B3FF40F28C00C2F269
:101990000000FFF7ADFF80BD80B5FFF7EFFFFFF759
:1019A000C7FF80BD80B584B00290029820B9FFE7E0
:1019B0006FF015000390D8E00298006820B9FFE7A7
:1019C0006FF015000390D0E0029800684AF671119C
:1019D000C0F20001FEF762FCE0B9FFE74AF23842CC
:1019E000C0F2000210685168926812689047019036
:1019F000019808B9FFE70AE04AF69F10C0F200001C
:101A00004AF6FF21C0F20001372204F099FB0020C2
:101A10000390AAE0029800684AF65531C0F200012E
:101A2000FEF73CFC002840F09D80FFE74AF22022B0
:101A3000C0F20002106851689268126890470090E6
:101A4000009808B9FFE70AE04AF69F10C0F20000CC
:101A50004AF6FF21C0F20001402204F071FB4AF275
:101A60004C22C0F2000210685168926812689047D8
:101A70000090009808B9FFE70AE04AF69F10C0F20C
:101A800000004AF6FF21C0F20001422204F058FB98
:101A90004AF27822C0F20002106851689268126817
:101AA00090470090009808B9FFE70AE04AF69F10B7
:101AB000C0F200004AF6FF21C0F20001442204F007
:101AC0003FFB4AF22021C0F200010868896849689A
:101AD00088470090009808B9FFE70AE04AF69F108F
:101AE000C0F200004AF6FF21C0F20001472204F0D4
:101AF00027FB4AF24C21C0F2000108688968496856
:101B000088470090009808B9FFE70AE04AF69F105E
:101B1000C0F200004AF6FF21C0F20001492204F0A1
:101B20000FFB4AF27821C0F2000108688968496811
:101B300088470090009808B9FFE70AE04AF69F102E
:101B4000C0F200004AF6FF21C0F200014B2204F06F
:101B5000F7FA4AF6C520C0F2000006F0ABFA002002
:101B6000039002E000200390FFE7039804B080BDDB
:101B700080B584B00290029820B9FFE76FF015009D
:101B8000039040E00298006820B9FFE76FF015006D
:101B9000039038E04AF23841C0F2000108688968D1
:101BA000CB6802994968002298470190019808B9CA
:101BB000FFE70AE04AF69F10C0F200004AF6FF2154
:101BC000C0F20001662204F0BBFA4AF23841C0F2CA
:101BD0000001086889688B69029A51680832984741
:101BE0000190019808B9FFE70AE04AF69F10C0F299
:101BF00000004AF6FF21C0F20001682204F0A0FABA
:101C000000200390FFE7039804B080BD80B584B046
:101C100002908DF80710029820B9FFE76FF01500C9
:101C2000039041E00298006820B9FFE76FF01500CB
:101C3000039039E04AF23841C0F20001086889682F
:101C4000CB6802994968042298470090009808B927
:101C5000FFE70AE04AF69F10C0F200004AF6FF21B3
:101C6000C0F20001592204F06BFA4AF23841C0F286
:101C7000000108688968CB69029949689DF80720C6
:101C800098470090009808B9FFE70AE04AF69F10CD
:101C9000C0F200004AF6FF21C0F200015B2204F00E
:101CA0004FFA00200390FFE7039804B080BD0000C6
:101CB00080B582B0009000984AF65531C0F200011C
:101CC000FEF7ECFA30B9FFE740F28C00C2F20000F8
:101CD000019012E000984AF67111C0F20001FEF77F
:101CE000DDFA30B9FFE740F22000C2F200000190B7
:101CF00003E0FFE700200190FFE7019802B080BDFC
:101D000080B584B040F2DC60C2F200000078C00709
:101D1000D8B3FFE74AF23840C0F200000090806874
:101D2000C36940F2A800C2F200000390026840F2CA
:101D30006840C2F2000001904FF48061984700991A
:101D400001988968CB6940F29C31C2F2000102918E
:101D50000A6840F60111984702990868B0FA80F0C5
:101D6000400908604AF6B920C0F2000006F0A2F966
:101D700003990868B0FA80F04009086040F2DC611D
:101D8000C2F2000100200870FFE704B080BD00002F
:101D900080B586B040F2DD60C2F200000078C00776
:101DA000002860D0FFE74AF23840C0F200000390FC
:101DB0008068C36940F29C30C2F20000059002685E
:101DC00040F26840C2F20000049040F601119847CA
:101DD000039A059904989268D3690A6840F20D3114
:101DE00098474AF6F220C0F2000006F063F9059821
:101DF0000168B1FA81F1490901600068B0B1FFE7FB
:101E000040F21000C2F20000036841686A460020F8
:101E100090604FF6FF7CC2F804C011604AF64A3267
:101E2000C0F20002662102F09BFC15E040F21000B7
:101E3000C2F20000036841686A46002090604FF6D5
:101E4000FF7CC2F804C011604AF63E32C0F20002C4
:101E5000662102F085FCFFE740F2DD61C2F200017D
:101E600000200870FFE706B080BD000080B584B098
:101E700040F2DE60C2F200000078C007002855D0B2
:101E8000FFE74AF23840C0F200008068C36940F2C0
:101E9000BC30C2F200000390026840F26840C2F217
:101EA000000040F20B2198474AF6DB20C0F2000008
:101EB00006F000F903980168B1FA81F1490901605F
:101EC0000068B0B1FFE740F21000C2F20000036802
:101ED0004068694600228A604FF6FF724A600860D7
:101EE0004AF63332C0F200022C20742102F038FC92
:101EF00015E040F21000C2F2000003684068694635
:101F000000228A604FF6FF724A6008604AF6273264
:101F1000C0F200022C20742102F022FCFFE740F204
:101F2000DE61C2F2000100200870FFE704B080BD4E
:101F300080B586B040F2DF60C2F200000078C007D2
:101F4000002863D0FFE74AF23840C0F20000039057
:101F50008068C36940F29C30C2F2000004900268BD
:101F600040F26840C2F2000005904FF4E1619847EA
:101F7000039A049905989268D3690A6840F20B4164
:101F800098474AF6CF20C0F2000006F093F840F2DE
:101F9000C430C2F200000168B1FA81F14909016060
:101FA0000068B0B1FFE740F21000C2F20000036821
:101FB00041686A46002090604FF6FF7CC2F804C07A
:101FC00011604AF61D32C0F20002662102F0C8FB21
:101FD00015E040F21000C2F20000036841686A4652
:101FE000002090604FF6FF7CC2F804C011604AF6F2
:101FF0001232C0F20002662102F0B2FBFFE740F2AB
:10200000DF61C2F2000100200870FFE706B080BD6A
:1020100080B598B040F26840C2F20000029040F2F1
:102020000C6103910122139201F00EFF64200190D4
:102030004FF47A71179101F0ABFA029803990022DC
:10204000129201F001FF1799019801F0A1FA02988C
:102050000399139A01F0F8FE1799C820079001F030
:1020600097FA112003F0E0FF1799782001F090FA19
:10207000B12003F0D9FF0520169003F0F5FF3C20B6
:10208000049003F0F1FF049803F0EEFFB22003F098
:10209000CBFF169803F0E8FF049803F0E5FF0498DF
:1020A00003F0E2FFB32003F0BFFF169803F0DCFF5C
:1020B000049803F0D9FF049803F0D6FF169803F0B4
:1020C000D3FF049803F0D0FF049803F0CDFFB420B1
:1020D00003F0AAFF03200B9003F0C6FFC020059079
:1020E00003F0A2FF2820099003F0BEFF082003F0B0
:1020F000BBFF0420149003F0B7FFC12003F094FF4E
:10210000059803F0B1FFC22003F08EFF0D200D9063
:1021100003F0AAFF129803F0A7FFC32003F084FF87
:102120008D20069003F0A0FF2A20089003F09CFF6A
:10213000C42003F079FF069803F096FFEE2003F029
:1021400093FFC52003F070FF1A2003F08DFF3620A7
:1021500003F06AFF079803F087FFE02003F064FFB5
:10216000149803F081FF222003F07EFF072003F084
:102170007BFF0A2003F078FF2E200A9003F074FF03
:10218000302003F071FF2520109003F06DFF0898B8
:1021900003F06AFF099803F067FF26200E9003F012
:1021A00063FF0A9803F060FF3A20159003F05CFF8C
:1021B000129803F059FF139803F056FF0B9803F0A1
:1021C00053FF0B9803F050FFE12003F02DFF14980C
:1021D00003F04AFF162003F047FF06200C9003F09F
:1021E00043FF0C9803F040FF0D9803F03DFF2D20B6
:1021F000119003F039FF0E9803F036FF232003F00F
:1022000033FF27200F9003F02FFF0F9803F02CFFD0
:10221000109803F029FF119803F026FF3B2003F0EC
:1022200023FF129803F020FF139803F01DFF14986A
:1022300003F01AFF132003F017FF159803F0F4FEC4
:10224000169803F011FF292003F0EEFE17991420D1
:1022500001F09EF918B080BD80B5012002F03EFD6E
:10226000102002F03BFDB42005F05CF800F090FA7D
:1022700040F26011C2F200010A7840F27420C2F20A
:10228000000002600268497841EA022101600068AA
:10229000FEF7D0F941EC100B9FED091B53EC112B0D
:1022A00051EC100BFEF721F941EC100B51EC100B27
:1022B000FEF7E4F900EE100A80BD00BF00BF00BFCA
:1022C000333333333333F33F80B584B0039000F0BE
:1022D00053F9A8B9FFE74AF6BD10C0F2000005F0B7
:1022E000E9FE4AF23840C0F200008068C36940F25B
:1022F0006840C2F2000040F20B210022984714E02F
:102300004AF6CC10C0F2000005F0D4FE4AF2384084
:10231000C0F200008068C36940F26840C2F2000069
:1023200040F20B2101229847FFE703981421FFF7A1
:102330007BF910EE100AFEF78EF941EC100B51EC10
:10234000100B9FED250B53EC102BFEF75CF841ECC6
:10235000100B51EC100BFEF791F902900298FEF76A
:102360007AF941EC100B53EC102B9FED1D0B51EC47
:10237000100B01910090FEF740F8009A019B41EC90
:10238000100B51EC100BFEF7B0F841EC100B51ECB8
:10239000100B9FED150B53EC102BFEF734F841ECAE
:1023A000100B51EC100BFEF769F902900298FEF742
:1023B00052F941EC100B53EC102B4AF6B210C0F25C
:1023C000000005F077FEC82004F0ACFF9DED020A86
:1023D00004B080BD00BF00BF6666666666664A3FA1
:1023E000000000000000F83F00000000000059401D
:1023F00080B584B00290029820B9FFE74FF0FF301B
:10240000039046E0029880880A2833D1FFE749F616
:10241000EC72C0F2000210685168D26812689047EE
:102420000190019808B9FFE70AE04AF69F10C0F250
:1024300000004AF6D711C0F200011E2203F080FE10
:1024400049F6EC72C0F2000210689168D2685268D6
:1024500090470190019808B9FFE70AE04AF69F10FB
:10246000C0F200004AF6D711C0F20001212203F0A9
:1024700067FEFFE74AF23841C0F200010868896848
:10248000CB6840F20F4100220092984700980390D9
:10249000FFE7039804B080BD80B586B00490039137
:1024A000ADF80A20049840B1FFE7039828B1FFE790
:1024B000BDF80A00002804DCFFE74FF0FF3005906C
:1024C00050E0049880880A2849D1FFE70020ADF841
:1024D0000800FFE7BDF80800BDF80A1088423DDAA1
:1024E000FFE749F6EC71C0F200010868C968896825
:1024F00088470190019808B9FFE70AE04AF69F1063
:10250000C0F200004AF6D711C0F20001312203F0F8
:1025100017FE49F6EC71C0F200010868C9688B69C2
:102520000399BDF8082001EB42020A219847019067
:10253000019808B9FFE70AE04AF69F10C0F20000D0
:102540004AF6D711C0F20001332203F0F9FDFFE78C
:10255000BDF808000130ADF80800BBE7FFE7002038
:102560000590FFE7059806B080BD000040F2C4006A
:10257000C2F200007047000080B582B000200090D9
:102580004AF23841C0F20001086889688B6940F25C
:102590000F416A469847009840B1FFE764204FF426
:1025A0007A7100F0F5FF0120019002E00020019017
:1025B000FFE7019802B080BD80B582B0019001981C
:1025C0001421FFF731F810EE100AFEF744F841EC41
:1025D000100B51EC100B9FED100B53EC102BFDF773
:1025E00012FF41EC100B51EC100BFEF747F8009076
:1025F0000098FEF730F841EC100B53EC102B4AF624
:10260000EC10C0F2000005F055FDC82004F08AFE71
:102610009DED000A02B080BD6666666666664A3F4A
:1026200080B584B00290029820B9FFE74FF0FF30E8
:1026300003903AE0029880880C2833D1FFE749F6EE
:10264000EC72C0F2000210685168D26812689047BC
:102650000190019808B9FFE70AE04AF69F10C0F21E
:1026600000004AF6F711C0F200011E2203F068FDD7
:1026700049F6EC72C0F2000210689168D2685268A4
:1026800090470190019808B9FFE70AE04AF69F10C9
:10269000C0F200004AF6F711C0F20001212203F057
:1026A0004FFDFFE700200390FFE7039804B080BDD3
:1026B00080B586B004900391ADF80A20049840B12B
:1026C000FFE7039828B1FFE7BDF80A00002804DC03
:1026D000FFE74FF0FF30059050E0049880880C2809
:1026E00049D1FFE70020ADF80800FFE7BDF808007A
:1026F000BDF80A1088423DDAFFE749F6EC71C0F2F6
:1027000000010868C968896888470190019808B97C
:10271000FFE70AE04AF69F10C0F200004AF6F71100
:10272000C0F200012F2203F00BFD49F6EC71C0F25C
:1027300000010868C9688B690399BDF8082001EB9E
:1027400042020C2198470190019808B9FFE70AE07E
:102750004AF69F10C0F200004AF6F711C0F20001DD
:10276000312203F0EDFCFFE7BDF808000130ADF8C1
:102770000800BBE7FFE700200590FFE7059806B0DB
:1027800080BD000040F2D400C2F20000704700009B
:1027900080B582B0FEF7B4F94720FEF7FDF90020BE
:1027A0008DF80700FFE79DF8070002281BDCFFE714
:1027B000FEF750F99DF8072040F26011C2F20001C7
:1027C00088549DF80700032803D1FFE7FEF724F99A
:1027D00002E0FEF795F8FFE7FFE79DF807000130FC
:1027E0008DF80700DFE7FEF7B1F9052004F09AFD48
:1027F00002B080BD80B582B046F24010C4F2000045
:102800000088ADF8060000200090FFE700980F2830
:1028100010D8FFE7BDF806000099C840C00720B1F6
:10282000FFE7009803F026FDFFE7FFE7009801307F
:102830000090EBE7BDF8060046F23011C4F200014B
:10284000088002B080BD000080B582B00190019880
:102850001421FEF7E9FE10EE100AFDF7FCFE41EC34
:10286000100B51EC100B9FED2A0B53EC102BFDF7C6
:10287000CAFD41EC100B51EC100B9FED270B53ECF4
:10288000102BFDF732FE41EC100B51EC100B9FEDBD
:10289000240B53EC102BFDF728FE41EC100B51ECF0
:1028A000100BFDF7EBFE00900098FDF7D4FE41EC15
:1028B000100B9FED1D1B53EC112B51EC100BFDF772
:1028C000A2FD41EC100B51EC100B9FED190B53ECDA
:1028D000102BFDF7F1FC41EC100B51EC100BFDF748
:1028E000CDFE00900098FDF7B6FE41EC100B53ECC6
:1028F000102B4AF67A10C0F2000005F0DBFBC8206E
:1029000004F010FD9DED000A02B080BD00BF00BFC5
:102910000000000000001440000000000000904093
:1029200000000000000018400000000000000C4003
:102930000000000000001C4080B584B002900298A6
:1029400020B9FFE74FF0FF3003903AE0029880880B
:10295000042833D1FFE749F6EC72C0F20002106898
:102960005168D268126890470190019808B9FFE752
:102970000AE04AF69F10C0F200004AF68A11C0F23F
:1029800000011E2203F0DCFB49F6EC72C0F20002EB
:1029900010689168D268526890470190019808B910
:1029A000FFE70AE04AF69F10C0F200004AF68A11DB
:1029B000C0F20001212203F0C3FBFFE700200390D7
:1029C000FFE7039804B080BD80B586B00490039102
:1029D000ADF80A20049840B1FFE7039828B1FFE75B
:1029E000BDF80A00002804DCFFE74FF0FF30059037
:1029F00050E004988088042849D1FFE70020ADF812
:102A00000800FFE7BDF80800BDF80A1088423DDA6B
:102A1000FFE749F6EC71C0F200010868C9688968EF
:102A200088470190019808B9FFE70AE04AF69F102D
:102A3000C0F200004AF68A11C0F200012F2203F012
:102A40007FFB49F6EC71C0F200010868C9688B6928
:102A50000399BDF8082001EB420204219847019038
:102A6000019808B9FFE70AE04AF69F10C0F200009B
:102A70004AF68A11C0F20001312203F061FBFFE740
:102A8000BDF808000130ADF80800BBE7FFE7002003
:102A90000590FFE7059806B080BD000040F2E40015
:102AA000C2F2000070470000B0B588B00DF1140C00
:102AB000CDF800C09C4613460A46014600980D9C7E
:102AC000DDF830E00794CDF818E0CDF814C0049399
:102AD0000392029100218DF8071090ED000A9FEDFE
:102AE000141AB4EE410AF1EE10FA0ADCFFE700987E
:102AF00090ED000ABDEEC00A10EE100A8DF8070036
:102B00000FE0009890ED000A9FED091AB4EE410A1B
:102B1000F1EE10FA04DBFFE700208DF80700FFE775
:102B2000FFE79DF8070000F005F808B0B0BD00BF52
:102B30000000C84280B588B08DF81F009DF81F00C6
:102B4000652804DBFFE764208DF81F00FFE740F2F3
:102B5000DC40C2F20000019004A900F07DFF06985D
:102B6000039003989DF81F10A0FB0101642200232D
:102B70000093FDF725FB009A014601980291029906
:102B800000F09AFE01980299012200F095FE08B02B
:102B900080BD000082B001900091062002B0704715
:102BA00085B00490039102920193049800900398D9
:102BB0000099886102980099086201980099C8619B
:102BC000002005B07047000080B588B004900498DC
:102BD000039003990020009088600399C8600398CF
:102BE0004068806A029003984068406904F0AAFB3C
:102BF00003984068806904F0A5FB0298806904F09E
:102C0000A1FB0298C06904F09DFB00980399096834
:102C100008820399096808800190EFF310810591FB
:102C20000599019101210791079A82F31088039A6F
:102C300052681288C2F1100201FA02F344F20C0148
:102C4000C4F208010A681A430A60096801990691EA
:102C5000069981F3108808B080BD000080B58CB063
:102C60000990089109980790002006900590079810
:102C700000690590059898B3FFE7059820F040504B
:102C800004900498C00004900599049840EA1170DB
:102C90000490049804F07CFB039007980068039963
:102CA00000EB41001A300899086004980A900A98CD
:102CB00020B9FFE720208DF82F0005E00A98B0FA30
:102CC00080F08DF82F00FFE79DF82F00C0F11F0066
:102CD000029002980399401A01300899486003E075
:102CE000089900204860FFE708990120886007984C
:102CF0004068008800EB40014FF4B07000EB4100E9
:102D000008990861079840680188082000EB410095
:102D10000899C86008994FF0FF3048614BF27C1069
:102D2000C4F27F0000680190BDF804000899486172
:102D300008994FF47A60088306980CB080BD0000B3
:102D400083B0029001910092062003B0704700000A
:102D500080B586B005900491059803900498806A28
:102D600002900498039948600498006A0399886166
:102D70000498406A03990862039900200090C86192
:102D80004FF4007001900198049909880022C4F260
:102D9000170200FB0120039908600398049904F0CE
:102DA0000FFB04994869097F039A04F0DDFA04993E
:102DB0008869497F039A04F0D7FA0299886991F8E3
:102DC0002010039A04F0D0FA0299C86991F82110F2
:102DD000039A04F0C9FA009803990861039A44F22F
:102DE0004341C5F24121916006B080BD84B003909B
:102DF000029101920398009000980068029900EBFC
:102E00004100008C01990880002004B07047000048
:102E100080B588B00690059104920020ADF80E00B0
:102E20000290069805990DF10E02FFF7DFFF019061
:102E3000019808B9FFE702E00198079014E0BDF897
:102E40000E0002900698009000984068C068012823
:102E500004D1FFE7029800040290FFE7029804996A
:102E6000086000200790FFE7079808B080BD0000C9
:102E700080B586B00590049104980390059802905F
:102E8000002001900298039904F032FB0398006837
:102E900002990861019806B080BD000082B00190DF
:102EA0000091062002B0704782B001900198009016
:102EB0000099888A09680880002002B070470000E5
:102EC00082B001900198009000980168002008806D
:102ED00002B0704783B00290019102980090009870
:102EE00000680088C00B01990860002003B070479B
:102EF0004CF20411C4F2010101200880FFE74CF2FA
:102F00000410C4F20100008808B1FFE7F7E74CF2B3
:102F10000011C4F201010120088047F20801C4F247
:102F20000001086047F20001C4F200010860704728
:102F300080B584B043F22801C4F208010020039058
:102F40000870C820012100F023FB039843F22401FC
:102F5000C4F208010870FFE743F22400C4F208003D
:102F6000007808B1FFE7F7E743F22401C4F2080153
:102F7000087840F002000870FFE743F22400C4F232
:102F8000080000784008C00708B1FFE7F5E743F202
:102F90002201C4F208010020019008700120029073
:102FA00000F078FA019902984EF2BB42C4F2010295
:102FB000117000F0A9FA04B080BD000080B584B0A3
:102FC0000390029101920298000103994EF200428F
:102FD000CEF2000288540398019900F09DFB04B0E2
:102FE00080BD000080B584B00390029101920298E8
:102FF000000103994EF20042CEF200028854039879
:10300000019900F097FB04B080BD000080B584B04A
:103010000390029101920298000103994EF200423E
:10302000CEF2000288540398019900F091FB04B09D
:1030300080BD000080B584B0039002910192029897
:10304000000103994EF20042CEF200028854039828
:10305000019900F08BFB04B080BD000080B584B006
:1030600003900291019203980299019AFFF7A6FF3B
:10307000039800F0DBF804B080BD000080B584B098
:1030800003900291019203980299019AFFF7AAFF17
:10309000039800F0D7F804B080BD000080B582B07E
:1030A0000190019800F03AF9BFF35F8F019800900A
:1030B000009800F01F010120884001994A094EF252
:1030C0008021CEF2000141F8220002B080BD000054
:1030D00080B582B00190019800F032F9BFF35F8FA4
:1030E00001980090009800F01F010120884001998C
:1030F0004A094EF28021CEF2000141F8220002B0CE
:1031000080BD000080B582B00190019800F02AF9DE
:10311000BFF35F8F01980090009800F01F0101201D
:10312000884001994A094EF28021CEF2000141F80F
:10313000220002B080BD000080B582B001900198ED
:1031400000F022F9BFF35F8F01980090009800F023
:103150001F010120884001994A094EF28021CEF2D8
:10316000000141F8220002B080BD000082B0019051
:1031700001980090009800F01F01012088400199FB
:103180004A094EF28011CEF2000141F82200BFF34D
:103190004F8FBFF36F8F02B07047000082B0019075
:1031A00001980090009800F01F01012088400199CB
:1031B0004A094EF28011CEF2000141F82200BFF31D
:1031C0004F8FBFF36F8F02B07047000082B0019045
:1031D00001980090009800F01F010120884001999B
:1031E0004A094EF28011CEF2000141F82200BFF3ED
:1031F0004F8FBFF36F8F02B07047000082B0019015
:1032000001980090009800F01F010120884001996A
:103210004A094EF28011CEF2000141F82200BFF3BC
:103220004F8FBFF36F8F02B07047000080B582B040
:1032300001900198FFF732FF019800F027F802B0E3
:1032400080BD000080B582B001900198FFF740FF7B
:10325000019800F02DF802B080BD000080B582B06A
:1032600001900198FFF74EFF019800F033F802B08B
:1032700080BD000080B582B001900198FFF75CFF2F
:10328000019800F039F802B080BD000082B00190D2
:1032900001980090009901F01F02012090404A0916
:1032A0004EF20011CEF2000141F8220002B0704748
:1032B00082B0019001980090009901F01F02012056
:1032C00090404A094EF20011CEF2000141F822006E
:1032D00002B0704782B0019001980090009901F00F
:1032E0001F02012090404A094EF20011CEF2000167
:1032F00041F8220002B0704782B00190019800901E
:10330000009901F01F02012090404A094EF200117D
:10331000CEF2000141F8220002B0704781B0009067
:10332000009A46F20030C4F2000050F8221021F456
:10333000803140F82210009950F8210001B0704708
:1033400081B00090009A46F20030C4F2000050F8BC
:10335000221021F4803140F82210009950F8210009
:1033600001B0704781B00090009A46F20030C4F27C
:10337000000050F8221021F4803140F8221000990A
:1033800050F8210001B0704781B00090009A46F2D9
:103390000030C4F2000050F8221021F4803140F8CF
:1033A0002210009950F8210001B0704784B000202D
:1033B0000090EFF31080019001980090012003909D
:1033C000039880F3108840F27840C2F20000006851
:1033D00040B1FFE740F27841C2F2000108680138CD
:1033E0000860FFE740F27840C2F20000006848B988
:1033F000FFE740F60351C4F2080100200870802066
:103400000870FFE700980290029880F3108804B0DB
:103410007047000084B000200090EFF3108001900E
:103420000198009001200390039880F3108840F2E7
:103430007840C2F20000006848B9FFE740F6035147
:10344000C4F208010020087040200870FFE740F235
:103450007841C2F2000108680130086000980290CB
:10346000029880F3108804B07047000081B000908B
:1034700000996FF03F0000EA9100C9B200EB8100B3
:1034800040F60001C4F208014058C0F3400001B00A
:103490007047000085B0019000200090EFF310808D
:1034A00002900298009001200490049880F3108804
:1034B000019940F27040C2F2000030F8110088B962
:1034C000FFE74EF2FE31C4F201010888019B4AF287
:1034D0007842C0F2000232F81320104340F4254035
:1034E0000880FFE7019A40F27041C2F2000131F812
:1034F0001200013021F8120000980390039880F325
:10350000108805B07047000085B001900020009041
:10351000EFF310800290029800900120049004982C
:1035200080F31088019940F27040C2F2000030F838
:10353000110058B1FFE7019A40F27041C2F2000158
:1035400031F81200013821F81200FFE7019940F22A
:103550007040C2F2000030F8110088B9FFE74EF267
:10356000FE31C4F20101088840F42540019B4AF273
:103570007842C0F2000232F8132090430880FFE73F
:1035800000980390039880F3108805B070470000FE
:1035900080B58AB009900891002004900998089994
:1035A00000FB01F0039040F21020C2F2000000681E
:1035B000079007994CF60020C3F69A30B0FBF1F063
:1035C000059003984FF47A71A0FB010101910090DE
:1035D000019848B9FFE700980599B0FBF1F0069013
:1035E00006988008049017E0039805998900B0FBBD
:1035F000F1F0039003984FF47A71A0FB010101915F
:103600000090019818B9FFE70098049003E04FF08C
:10361000FF300490FFE7FFE7049820B1FFE704982C
:1036200002F0D6FEFFE70AB080BD000082B0019034
:10363000019940F26870C2F2000050F82100009039
:10364000009802B07047000080B582B001900198E8
:1036500008B9FFE7FFE7019802280CD1FFE74AF21B
:103660003840C0F20000416840F26840C2F20000F9
:1036700000F050FBFFE702B080BD000082B0EFF326
:103680000380019001980090BDF800006FF35F2067
:10369000103802B07047000082B0EFF30380019051
:1036A00001980090BDF800006FF35F20103802B061
:1036B0007047000082B0EFF3038001900198009002
:1036C000BDF800006FF35F20103802B070470000B3
:1036D00081B00090009940F25C50C2F2000050F8B6
:1036E000210001B07047000081B00090009940F2C5
:1036F0005C50C2F2000050F8210001B07047000099
:1037000081B00090009940F25C50C2F2000050F885
:10371000210001B07047000082B001900091009834
:10372000019A40F25C51C2F2000141F8220002B05D
:103730007047000082B0019000910098019A40F219
:103740005C51C2F2000141F8220002B07047000053
:1037500082B0019000910098019A40F25C51C2F24F
:10376000000141F8220002B07047000082B00190D1
:1037700000910098019A40F25C51C2F2000141F8B8
:10378000220002B07047000084B003904EF2200087
:10379000C4F201000068029002980399C84000F04A
:1037A000070001909DF80B0000F00700009040F228
:1037B0001020C2F200000068009988400199C840BA
:1037C00004B0704784B003904EF22000C4F20100B0
:1037D0000068029002980399C84000F00700019029
:1037E0009DF80B0000F00700009040F21020C2F29C
:1037F00000000068009988400199C84004B07047F3
:1038000085B004900391029201930498009003986C
:103810000099486102980099C861019800998861EF
:10382000002005B07047000080B586B0059005986F
:10383000049000200090039004984068006A029071
:1038400004984068406904F025F80298806B04F001
:1038500021F80298C06B04F01DF8009804990860E4
:10386000049804F03BF801460098019104998A6895
:10387000C96891600499896848630498019941F482
:10388000254104F031F8039806B080BD80B584B0BE
:10389000039003980290029804F020F80190029897
:1038A00002F0A4FF0298019941F4254104F01CF8AC
:1038B000002004B080BD000080B58AB00990089156
:1038C0000792079800F003000690099805900020E1
:1038D00004904FF0FF30039005980899079B03AAC6
:1038E00002F068FE059803F0F9FF029005988068E1
:1038F000006B0190049858BBFFE7022000909DF8F0
:103900001C000007002803D5FFE704200090FFE714
:103910009DF81C00800700280FD5FFE70398059944
:103920008968009A01EB8201C86403980599896847
:10393000009A01EB8201086509E0039805998968FE
:10394000069A009B1A4401EB8201C864FFE7FFE777
:103950009DF81C004006002807D5FFE70598816800
:10396000086C40F480000864FFE7069801280AD03C
:10397000FFE7019820F4403001900499019840EA53
:1039800001400190FFE7079802280AD1FFE7049859
:1039900038B1FFE70598089903AA012302F00AFE4F
:1039A000FFE7069850B1FFE7019820F040700190C2
:1039B0000499019840EA01600190FFE70198059998
:1039C000896808630598029941F4254103F08CFF4A
:1039D00000200AB080BD000080B588B0079007982D
:1039E000069006984068006A05904FF000400490E9
:1039F0000390029005980169049808430490059883
:103A00004169039808430390059881690298084327
:103A10000290069803F062FF019003980699896866
:103A200048610298069989688861049806998968AE
:103A300008610598C0690699896848620598006A16
:103A40000699896888620698019941F4254103F036
:103A50004BFF002008B080BD80B586B00590049172
:103A60000598039003988068406E02900298013098
:103A70000190019804998860039802F015FE04995A
:103A80004860049901200860002006B080BD000055
:103A900080B584B003900291039801900298017C54
:103AA000012088400199C8600198029902F00EFE39
:103AB0000198029902F0B0FE019945F25400C0F25B
:103AC00047000860002004B080BD000080B586B0CB
:103AD0000590049105980390039803F0FFFE02906F
:103AE00004980138019001980399896888660398C1
:103AF0004068006878B9FFE704994FF0FF3000EBA9
:103B000051000090009803998968486500980399CE
:103B100089688865FFE703988068C06AC00770B944
:103B2000FFE70198039989684866039881684FF414
:103B3000AA00086403988168C068C860FFE703981A
:103B4000029941F4254103F0CFFE002006B080BD6C
:103B500082B001900198009000988168C068C860A8
:103B6000002002B07047000082B0019001980090E0
:103B700000988168C0684860002002B0704700006B
:103B800083B0029001910298009000988068C06A0A
:103B900000F001000199486000988068806C0199EC
:103BA0000860002003B0704782B001900198009037
:103BB00000988168C0688860002002B070470000EB
:103BC00085B00490039102920193049800900398A9
:103BD0000099C860029800990861002005B07047FC
:103BE00080B582B00190019800900098406800284C
:103BF0000AD4FFE700984068FFF7E8FA00984068A9
:103C00000021FFF7A5FDFFE700990020086002B042
:103C100080BD000080B582B00190019800900098AE
:103C20004068FFF7D3FA002002B080BD80B582B0B3
:103C300001900198009000984068FFF70FFB00206A
:103C400002B080BD80B586B00590049105980390C0
:103C500004984068039948600398406846F2003130
:103C6000C4F2000151F8200002900398426800203D
:103C700041F82200049A5269039BDA60049A92691F
:103C8000039B1A61049A1278039B1A72039A127AA0
:103C900046F20003C4F20003D0540498C068000147
:103CA0008DF807000498027C9DF8070040EAC210D6
:103CB0008DF80700049882689DF8070010438DF87E
:103CC00007009DF80700039A127AD0540298039ACD
:103CD000526841F8220003984068002807D4FFE7A3
:103CE000039A506804994978FFF790F9FFE7039920
:103CF00044F25530C0F249000860002006B080BD93
:103D000082B001900198009000990020086002B0F4
:103D10007047000080B584B0039002910398019031
:103D2000019945F25420C5F24F000860029803F053
:103D30008FFE002004B080BD80B588B0079006914A
:103D4000059206980290059801900120ADF80C00AC
:103D500001A8049003A802F03FFBFFF75BFB069865
:103D6000059903F041FEFFF721FB002008B080BD5C
:103D700085B004900391029203994FF4FF5000EA3A
:103D8000D1000021C4F20801084300900098406867
:103D9000000CADF806009DF80C1001208840ADF82D
:103DA0000400BDF80600BDF804100840884204D1A4
:103DB000FFE702990120086003E0029900200860F3
:103DC000FFE7002005B0704780B586B005900491EC
:103DD00003920498ADF802009DF803000002ADF8CC
:103DE0000200BDF8020001900020ADF80A00ADF815
:103DF00008000398012807D1FFE79DF81010012063
:103E00008840ADF80A0006E09DF8101001208840B7
:103E1000ADF80800FFE70198BDF80A10BDF80820CA
:103E2000039B03F0A5FD002006B080BD80B584B0E3
:103E30000390029101920298FFF718FB0199086024
:103E4000002004B080BD000087B006900591049268
:103E50000020ADF80E00ADF80C009DF81500000232
:103E600002909DF81400ADF80600BDF80610012080
:103E70008840ADF80400049828B9FFE7BDF80400B5
:103E8000ADF80C0004E0BDF80400ADF80E00FFE74B
:103E900002994FF4FF5000EAD1000021C4F208015A
:103EA00008430090BDF80C10BDF80E0040EA014038
:103EB00000998860002007B07047000080B582B08C
:103EC00001900091009803F0C3FD002002B080BD76
:103ED00088B007900691ADF81620ADF81430069919
:103EE0004FF4FF5000EAD1000021C4F2080108435A
:103EF0000090009800680490BDF81600BDF81410FA
:103F000008400390BDF81610BDF8140088430290D5
:103F1000049801900399019808430190029901982F
:103F200088430190019800990860002008B070470C
:103F300084B003900291019202994FF4FF5000EA7D
:103F4000D1000021C4F208010843009000984068A5
:103F5000000C01990880002004B0704785B00490DF
:103F60000391ADF80A20ADF80830BDF80A00BDF89D
:103F700008100840ADF80600BDF80A10BDF80800AA
:103F80008843ADF8040003994FF4FF5000EAD100D4
:103F90000021C4F2080108430090BDF80410BDF8E8
:103FA000060040EA01400099C860002005B0704753
:103FB00084B003900291019202994FF4FF5000EAFD
:103FC000D1000021C4F20801084300900098406825
:103FD00001990880002004B07047000085B004906B
:103FE0000391ADF80A20ADF80830BDF80A00BDF81D
:103FF00008100840ADF80600BDF80A10BDF808002A
:104000008843ADF8040003994FF4FF5000EAD10053
:104010000021C4F2080108430090BDF80410BDF867
:10402000060040EA014000998860002005B0704712
:1040300080B586B004900391049802900620019008
:104040009DF80C008007002815D5FFE7002001909F
:1040500002990A6A917801F07B01917002990861D6
:10406000029803F055FD019808B9FFE702E00198B6
:1040700005900DE0FFE79DF80C00C00728B1FFE7B1
:104080000020019002998861FFE701980590FFE701
:10409000059806B080BD000080B586B005900491FB
:1040A000059803900398006A807800F07B008DF8F3
:1040B0000B009DF80B0000F08F000399096A8870CF
:1040C000039900200190C8600398006A049903F0E6
:1040D00023FD01989DF80B10039A126A917006B0A7
:1040E00080BD000085B00490039102920193049872
:1040F000009003980099486202980099C86201985C
:1041000000998862002005B07047000080B588B033
:10411000049004980390039900200190486003994B
:10412000096A88700398C0694069FFF767F80398C7
:10413000C069C06AFFF762F80398C069C069FFF7F9
:104140005DF80398C069406AFFF758F8019802903B
:10415000EFF31080059005980290012007900799D1
:1041600081F310880399C9690978C1F11F0100FA28
:1041700001F244F20400C4F2080001681143016036
:10418000006802980690069880F31088039803F060
:10419000BFFC019808B080BD82B0019000910099E9
:1041A0004FF0FF30486000990860002002B070476F
:1041B00080B58AB00690059106980490059801781C
:1041C00048F20000C4F2110000EB012004990862DB
:1041D0000499002008700599049AD1610599896BAA
:1041E000049A51620599C96B049AD1620499886254
:1041F0000499887800F0FC000130887005984068C8
:1042000038B9FFE70499887800F0FC000230887024
:10421000FFE70498059903F05BFC049803F078FC31
:1042200000210391EFF3108007900798039001207D
:104230000990099A82F31088059A1278C2F11F0238
:1042400000FA02FC44F20402C4F20802136823EAF2
:104250000C0313601268039A0892089A82F310887C
:10426000049A126A9170049A126A1171049A126A7D
:104270005172049A126A9172049A126AD172049A63
:10428000126A518305990978884040F2F931084251
:1042900005D0FFE70498016A4020C874FFE704983E
:1042A000016A062008770498059903F095FC0499A3
:1042B00000200090C860049908610499486104993D
:1042C00088610598006C02900298006800F0030075
:1042D0000190019840F0100001900498C069406975
:1042E000FEF7C8FF0498C069C06AFEF7C3FF0198D3
:1042F00040F0400001900498C069C069FEF7BAFF21
:104300000498C069406AFEF7B5FF0098019941F032
:10431000200101910199049A126A917002994969E8
:10432000049A9160049A44F65511C5F243315160E4
:104330000AB080BD85B00490039102920498019068
:1043400000200090039801994861029801998861C2
:10435000009805B07047000083B002900191029868
:104360000090009880690199086000990020886198
:1043700003B0704784B003900291019203980090BB
:104380000098016A887800F07B0088700198009995
:104390008A7802F00302801A0861029800998A78EC
:1043A00002F003021044C8600098016A887840F067
:1043B000800088700098807800F00300022808D1FF
:1043C000FFE70298008840F47E400099096AC8819E
:1043D00005E0029800780099096AC870FFE700209C
:1043E00004B0704780B500F0DBFC02F091FFFFE7FE
:1043F000FEE7000080B582B00090009820B9FFE78A
:104400006FF0150001901BE00098006820B9FFE7ED
:104410006FF01500019013E00098006830B1FFE7DD
:10442000009908680969FBF715FFFFE7009908681C
:10443000C860009988600099002048610190FFE7FA
:10444000019802B080BD000080B584B0029002984F
:1044500020B9FFE76FF0150003901DE00298006897
:1044600020B9FFE76FF01500039015E0029800688F
:1044700003F044FE029900200190086002998860D0
:104480000299C8600299486002994861029803F055
:1044900035FE01980390FFE7039804B080BD00004B
:1044A00080B584B00290029818B9FFE7002003900D
:1044B00050E02C2003F04AFE0190019818B9FFE764
:1044C0000020039046E00198006828B1FFE70198BA
:1044D000006803F013FEFFE7029803F037FE01992E
:1044E00008600198006850B9FFE702994AF68130E8
:1044F000C0F2000003F0DEFD002003902AE00199E5
:104500000868C8600199886001990868029A104497
:104510004860019900204861029801990861019959
:1045200044F21960C0F200008861019944F25D50C4
:10453000C0F20000C861019944F2F530C0F20000F9
:104540000862019944F24940C0F2000048620198B3
:104550000390FFE7039804B080BD000080B586B0EB
:10456000049003910292002001900090049800684A
:1045700020B9FFE76FF0150005904AE00498406904
:1045800020B9FFE76FF00B00059042E00298049914
:104590004969884204D9FFE7049840690290FFE71F
:1045A000049841688068029A104488421DD9FFE748
:1045B000049948688968401A019002980199401A44
:1045C0000090039804998968019AFBF72AFE0398E2
:1045D0000199084404990968009AFBF722FE04999E
:1045E0000868009A104488600BE003980499896871
:1045F000029AFBF716FE04998868029A10448860B4
:10460000FFE7029A04994869801A48610298059068
:10461000FFE7059806B080BD80B588B0069005918B
:104620000492002003900290019004980699096971
:10463000884204D9FFE76FF01500079071E00698F3
:10464000006820B9FFE76FF01500079069E0069851
:104650004168C068049A104488421DD9FFE7069952
:104660004868C968401A039004980399401A029058
:104670000698C0680599039AFBF7D3FD0698006871
:104680000599039A1144029AFBF7CBFD0699086835
:10469000029A1044C8600BE00698C0680599049A15
:1046A000FBF7BFFD0699C868049A1044C860FFE78D
:1046B000069801694069049A1044884228D9FFE7A6
:1046C000069801694069049A1044401A01900698BE
:1046D00041688068019A104488420FD9FFE7069923
:1046E00048688968401A039001980399401A02901B
:1046F00006990868029A1044886005E0069988685F
:10470000019A10448860FFE706990869486105E04E
:1047100006994869049A10444861FFE70498079095
:10472000FFE7079808B080BD80B54AF23841C0F273
:10473000000108688968CB6840F20B510022984755
:1047400080BD000080B54AF23841C0F2000108681F
:104750008968CB6840F20B510422984780BD000065
:10476000B0B588B09E460B4684460C9C0E980D99B9
:104770000794CDF818E0ADF816C0ADF814300492E7
:10478000ADF80E10ADF80C0040F26840C2F2000027
:104790004FF487710022FFF757FBFFE7049800787A
:1047A000002852D0FFE7BDF816009DF81810084405
:1047B00040F21A01C2F20001B1F90010884223DB75
:1047C000FFE70020ADF816009DF81910BDF81400A1
:1047D0000844ADF81400BDF814009DF81910084401
:1047E00040F21801C2F20001B1F90010884201DB69
:1047F000FFE72AE004980078202804D1FFE7049816
:1048000001300490CAE7FFE7BDF81600BDF81410A8
:10481000049A1278BDF80E40BDF80C50069BDDF8E6
:104820001CC0EE46CEF80850CEF80440CEF800C0CA
:1048300000F02CF99DF81810BDF816000844ADF8EA
:104840001600049801300490A8E740F26840C2F2D4
:1048500000004FF487710122FFF7F6FA08B0B0BDEF
:1048600080B584B084460698ADF80EC0ADF80C1043
:10487000ADF80A20ADF80830ADF80600BDF80E001E
:1048800040F21A01C2F20001B1F9001088420BDABD
:10489000FFE7BDF80C0040F21801C2F20001B1F9C7
:1048A0000010884201DBFFE790E0BDF80E00BDF884
:1048B0000A100844013840F21A01C2F20001B1F9AD
:1048C000001088420BDBFFE740F21A00C2F2000042
:1048D0000088BDF80E10401AADF80A00FFE7BDF8D9
:1048E0000C00BDF808100844013840F21801C2F26B
:1048F0000001B1F9001088420BDBFFE740F218001D
:10490000C2F200000088BDF80C10401AADF8080093
:10491000FFE740F26840C2F2000000904FF4877158
:104920000022FFF791FABDF80E00BDF80A1001440D
:104930004A1EBDF80C10BDF808300B44013BD2B242
:10494000DBB2C0B2C9B200F05BF800989DF8071066
:104950008DF80410BDF806108DF8051040F20961BD
:104960000122FFF771FABDF80800ADF80C00FFE76F
:10497000BDF80C0001281FDBFFE7BDF80A00ADF809
:104980000E00FFE7BDF80E0001280EDBFFE7002058
:1049900000F034F99DF8050000F030F9FFE7BDF8AC
:1049A0000E000138ADF80E00ECE7FFE7BDF80C0093
:1049B0000138ADF80C00DBE740F26840C2F20000BD
:1049C0004FF487710122FFF73FFAFFE704B080BD83
:1049D00080B582B0ADF8060040F21A00C2F20000C5
:1049E000028840F21800C2F200000388BDF80600F9
:1049F0006946086000210846FFF732FF02B080BD1B
:104A000080B584B08DF80F008DF80E108DF80D2054
:104A10008DF80C3000208DF808009DF80F2040F232
:104A20001C01C2F200010B781A448DF809208DF8A0
:104A30000A009DF80D00097808448DF80B002A2023
:104A400000F098F802A800900421019100F09CF871
:104A50002B2000F08FF8009801999DF80E2040F26D
:104A60001D03C2F2000393F800C062448DF80920D0
:104A70009DF80C201B781A448DF80B2000F084F868
:104A80002C2000F077F804B080BD0000B0B58AB0EB
:104A90009E460B4684460E9C10980F990994CDF8BB
:104AA00020E0ADF81EC0ADF81C308DF81B20ADF82D
:104AB0001810ADF81600BDF81E009DF820109DF8E6
:104AC000213001444A1EBDF81C100B44013BD2B2F8
:104AD000DBB2C0B2C9B2FFF793FF00200490FFE73A
:104AE00004989DF82110884241D2FFE709989DF86B
:104AF0001B1020399DF82120049B11FB023130F856
:104B00001100039000200290FFE702989DF820100A
:104B1000884227D2FFE703980299884000040028C2
:104B20000ED5FFE79DF819008DF80600BDF81800B6
:104B30008DF807000DF10600022100F025F80CE0C9
:104B40009DF817008DF80400BDF816008DF80500DB
:104B500001A8022100F018F8FFE7FFE702980130F2
:104B60000290D2E7FFE7049801300490B8E70AB05A
:104B7000B0BD000080B582B08DF807009DF8070039
:104B800000F01CF802B080BD80B584B003900291A3
:104B9000002001900190FFE70198029988420AD213
:104BA000FFE703980199405C00F028F8FFE70198BF
:104BB00001300190F0E704B080BD000080B584B002
:104BC000039040F26840C2F2000001904FF48771F8
:104BD000029100220092FFF737F9009A019840F203
:104BE0000961FFF731F99DF80C0000F027F80198F2
:104BF00002990122FFF728F904B080BD80B584B086
:104C0000039040F26840C2F2000000904FF48771B8
:104C100001910022FFF718F9009840F20961012282
:104C20000292FFF711F99DF80C0000F007F80098C8
:104C30000199029AFFF708F904B080BD80B582B0EF
:104C40008DF807009DF8070000F002F802B080BD63
:104C500080B584B08DF80F0000208DF80E00FFE7BE
:104C60009DF80E00072836DCFFE79DF80F000006D0
:104C700000280AD5FFE740F26840C2F200004FF476
:104C800020610122FFF7E0F809E040F26840C2F23B
:104C900000004FF420610022FFF7D6F8FFE79DF8EF
:104CA0000F0040008DF80F0040F26840C2F2000093
:104CB000029040F6012101910022FFF7C5F8019909
:104CC00002980122FFF7C0F8FFE79DF80E000130BF
:104CD0008DF80E00C4E704B080BD000080B582B03E
:104CE0008DF80700FBF70CFF4620FBF755FF9DF8FA
:104CF0000700FBF751FFFBF729FF02B080BD000062
:104D000080B582B0009000980138B0F1807F03D365
:104D1000FFE70120019019E0009801384EF21401DC
:104D2000CEF2000108604FF0FF300F2101F0EAF9E8
:104D30004EF21801CEF20001002008604EF210027F
:104D4000CEF20002072111600190FFE7019802B046
:104D500080BD000040F27821C2F2000108680130F5
:104D60000860704781B04EF22600C4F2010000785E
:104D70000090009940F26870C2F2000050F82100E3
:104D80004EF22001C4F201010968C1F30261C8407A
:104D900040F21021C2F20001086001B0704700002B
:104DA00080B588B04EF68851CEF200014FF4700005
:104DB000086040F20000C0F2000001904EF6085179
:104DC000CEF20001086000200290FEF73DFC01F0E9
:104DD000DFF90120FEF738FC01980068A0F50050CB
:104DE0000790079880F30A8840F26010C2F2000032
:104DF00040F20861C0F20001FBF72CFA40F200001B
:104E0000C2F200004AF62851C0F2000140F26012DE
:104E1000C0F20002FBF705FA029840F2C012C0F29D
:104E2000000240F2C011C0F20001891A89100691F7
:104E30000590FFE705980699884210DAFFE7059983
:104E400040F2C010C0F2000050F821100844049055
:104E500004988047FFE7059801300590EAE7FFF7DF
:104E600081FFFEF765F80320FEF714FB0020039096
:104E7000FFE7039808280ED8FFE7039A40F6105181
:104E8000C4F208014FF6FF7021F81200FFE7039803
:104E900001300390EDE70320FEF736FB0220FEF71A
:104EA000D3FB01F003FA002001F0FCF908B080BD4B
:104EB00080B584B00290029820B9FFE76FF015002A
:104EC000039019E00520FEF7B1FB0190019844F62C
:104ED000D351C1F26201A0FB01108009FFF710FF5E
:104EE00020B1FFE76FF00400039005E00299012074
:104EF000487100200390FFE7039804B080BD0000D4
:104F000080B582B040F2F400C2F20000019000F0DF
:104F10002BF901988168884702B080BD10B5ACB00C
:104F2000DDF8BCE0DDF8B8C0309CCDF8A8E0CDF8E5
:104F3000A4C028932792269125906FF00400249016
:104F40002A9A4AF6A701C0F200011CA80B9003F0B0
:104F5000C1F80B9840F20071C2F2000109680A9191
:104F6000C9680991FBF793F9099B0B9902460A98C6
:104F700098470B9924904AF6DA00C0F2000003F03B
:104F800099F8249818B1FFE724982B909AE04AF6F4
:104F9000F300C0F200004FF47A7100F029FB249076
:104FA000249818B1FFE724982B908BE04AF64B0128
:104FB000C0F2000114A8089003F08CF8089840F2A1
:104FC0000071C2F2000109680791C9680691FBF7F8
:104FD0005EF9069B0899024607989847089924901D
:104FE0004AF6DA00C0F2000003F064F8249818B121
:104FF000FFE724982B9065E04AF6F300C0F200002A
:105000004FF47A7100F0F4FA2490249818B1FFE775
:1050100024982B9056E04AF66501C0F200010CA8D6
:10502000059003F057F8059840F20071C2F20001B4
:1050300009680491C9680391FBF729F9039B059955
:10504000024604989847059924904AF6DA00C0F27F
:10505000000003F02FF8249818B1FFE724982B9054
:1050600030E04AF6F300C0F200004FF47A7100F02D
:10507000BFFA2490249818B1FFE724982B9021E0E0
:1050800040F20070C2F2000000680290C068019017
:1050900030980090FBF7FBF80099019B02460298BC
:1050A0009847249030994AF6DA00C0F2000003F0E5
:1050B00001F8249818B1FFE724982B9002E0249877
:1050C0002B90FFE72B982CB010BD000080B586B068
:1050D000049040F20070C2F2000000680290C068C4
:1050E000019004980090FBF7D2F80099019B0246CA
:1050F00002989847039004994AF63C10C0F20000C9
:1051000002F0D8FF039818B1FFE70398059005E077
:10511000C82002F007F903980590FFE7059806B04C
:1051200080BD000080B584B0029040F29430C2F29D
:10513000000000680190FFE7019870B1FFE7019857
:1051400000680299FBF791F818B1FFE70198039006
:1051500006E00198C0690190EEE700200390FFE7A8
:10516000039804B080BD000081B0009040F29430FC
:10517000C2F20000006838B9FFE7009840F29431AD
:10518000C2F20001086009E040F29431C2F200016D
:105190000868009AD06100980860FFE701B0704786
:1051A00080B582B040F29430C2F2000000680190F5
:1051B0004AF62820C0F2000002F07CFFFFE70198C9
:1051C00060B1FFE7019801684AF62220C0F20000B2
:1051D00002F070FF0198C0690190F0E74AF6DC0028
:1051E000C0F2000002F066FF02B080BD80B5FFF79C
:1051F00087FEFCF701FAFFF7D3FF80BDFFE740F21F
:10520000B830C2F200000078C00708B9FFE7F6E73F
:1052100040F2B831C2F2000100200870704700006F
:10522000FFE740F2B930C2F200000078C00708B9C9
:10523000FFE7F6E740F2B931C2F200010020087042
:1052400070470000FFE740F2BA30C2F20000007879
:10525000C00708B9FFE7F6E740F2BA31C2F2000131
:10526000002008707047000080B586B00490049854
:1052700020B9FFE76FF01500059061E00498007910
:1052800001460191072809D3FFE70198072838D084
:10529000FFE70198083802284DD34DE04AF29062AA
:1052A000C0F200021068516892681268904703903B
:1052B000039808B9FFE70AE04AF69F10C0F2000021
:1052C0004AF65321C0F20001402200F039FF4FF4AA
:1052D0008060FFF7E5F8014640F2C030C2F20000FE
:1052E0000160006808B1FFE70AE04AF66A20C0F2F0
:1052F00000004AF65321C0F20001422200F020FFD4
:105300001BE04AF20872C0F200021068516892680D
:10531000126890470290029808B9FFE70AE04AF63F
:105320009F10C0F200004AF65321C0F2000148224B
:1053300000F006FF01E000E0FFE700200590FFE736
:10534000059806B080BD000080B586B0049003913A
:105350000292049820B9FFE76FF01500059051E024
:10536000039820B9FFE76FF0150005904AE0029816
:1053700020B9FFE76FF01500059043E0049800792D
:1053800001460091072809D3FFE70098072817D0A6
:10539000FFE70098083802282FD32FE040F2C030F2
:1053A000C2F200000068C3690399029A9847029903
:1053B000884204D0FFE76FF00400059022E01EE071
:1053C0004AF20871C0F20001086889684B680399C5
:1053D000029A98470190019808B9FFE70AE04AF657
:1053E0009F10C0F200004AF65321C0F2000185224E
:1053F00000F0A6FEFFF714FF01E000E0FFE70298CF
:105400000590FFE7059806B080BD000080B588B024
:10541000069005910492069820B9FFE76FF01500F9
:10542000079063E0059820B9FFE76FF0150007903B
:105430005CE0049820B9FFE76FF01500079055E095
:105440000698007901460191072809D3FFE70198E2
:10545000072829D0FFE701980838022841D341E006
:1054600040F2C030C2F200000068016A88474AF288
:105470009061C0F20001086889688B680599049AF8
:1054800098470390039808B9FFE70AE04AF69F108F
:10549000C0F200004AF65321C0F20001612200F080
:1054A0004FFEFFF7ABFE1EE04AF20871C0F20001AA
:1054B000086889688B680599049A98470290029851
:1054C00008B9FFE70AE04AF69F10C0F200004AF66A
:1054D0005321C0F20001682200F032FEFFF7B2FE55
:1054E00001E000E0FFE700200790FFE7079808B021
:1054F00080BD000080B584B0029040F29830C2F2C6
:10550000000000680190FFE7019870B1FFE7019883
:1055100000680299FAF7A9FE18B1FFE70198039015
:1055200006E0019840690190EEE700200390FFE754
:10553000039804B080BD000081B0009040F2983024
:10554000C2F20000006838B9FFE7009840F29831D5
:10555000C2F20001086009E040F29831C2F2000195
:105560000868009A506100980860FFE701B0704732
:1055700080B582B040F29830C2F20000006801901D
:105580004AF60C20C0F2000002F094FDFFE70198FB
:1055900060B1FFE7019801684AF62220C0F20000DE
:1055A00002F088FD019840690190F0E74AF6DC00BE
:1055B000C0F2000002F07EFD02B080BD80B582B076
:1055C00040F2AC00C2F200000190FFF7B5FF40F2DC
:1055D0001410C2F20000FFF7AFFF019881688847FE
:1055E00002B080BD80B5FFF7E9FFFFF7C1FF80BDC6
:1055F00080B5C4B04290419100208DF803010DF1B7
:1056000003004FF48071FAF725FEFFE74198002868
:1056100049D0FFE742990DF10300FAF726FE58B191
:10562000FFE74AF6DA00C0F200000DF1030102F0D4
:1056300041FD0020439042E04AF6F701C0F200012C
:105640000DF10300FAF711FE60B1FFE74AF6DA0048
:10565000C0F200000DF1030102F02CFD6FF0040018
:1056600043902CE040F20070C2F200000068036931
:105670009DF803210DF103011144012298470128EF
:1056800006D1FFE79DF8030101308DF80301FFE724
:10569000FFE7FFE74FF4FA700121FDF779FF41982A
:1056A00001384190B2E74AF6DA00C0F200000DF18D
:1056B000030102F0FFFC6FF004004390FFE7439802
:1056C00044B080BD80B5BCB03A906FF00400399012
:1056D0003A990A684B688868D1F80CC0D1F810E094
:1056E0006946C1F808E0C1F804C008604AF67601CE
:1056F000C0F2000119A8059002F0ECFC059840F2F8
:105700000071C2F2000109680791C9680691FAF7B1
:10571000BEFD0599069B024607989847399039982F
:1057200018B1FFE739983B90B7E0642001F0FAFD2B
:105730004FF47A70ADF8620000208DF861008DF8AA
:10574000600008A84021FAF785FDFFE7BDF8621068
:105750000020049039B1FFE79DF86000023818BFBF
:1057600001200490FFE70498C007002877D0FFE7E6
:1057700040F20070C2F20000006803699DF86120E9
:1057800008A911440122984701285FD1FFE79DF83D
:10579000611008A8415C4AF6FC00C0F2000002F06B
:1057A00089FC9DF860000146039120B1FFE7039852
:1057B00001281BD041E04AF6DF01C0F2000108A831
:1057C000FAF753FD20B1FFE701208DF86000FFE7F5
:1057D0004AF6E401C0F2000108A8FAF746FD20B13C
:1057E000FFE76FF004003B9057E027E09DF8611061
:1057F00008A8405C312814DBFFE79DF8611008A879
:10580000405C39280DDCFFE73A99486900EB8002DB
:105810009DF8613008A8C05C00EB42003038486158
:10582000FFE79DF8611008A8405C0A2804D1FFE753
:1058300002208DF86000FFE700E0FFE79DF86100BF
:10584000013000F03F008DF86100FFE7BDF8620015
:105850000138ADF86200012001F064FD76E79DF8A3
:105860006000022815D1FFE700F0F6F93990399869
:1058700018B1FFE739983B900FE03A988168426988
:105880004AF68F00C0F2000002F014FC00203B90AA
:1058900003E06FF004003B90FFE73B983CB080BD15
:1058A00080B5A6B0249023916FF004002290249A32
:1058B0004AF6D201C0F200011AA8069002F00AFCD2
:1058C00006994AF6DA00C0F2000002F0F3FB0698EF
:1058D00040F20071C2F2000109680891C96807919D
:1058E000FAF7D5FC0699079B02460898984722903C
:1058F000229818B1FFE72298259091E04AF6F3002C
:10590000C0F200004FF47A71FFF772FE22902298E5
:1059100018B1FFE72298259082E0239A4AF6C20147
:10592000C0F2000112A8039002F0D4FB03994AF6DA
:10593000DA00C0F2000002F0BDFB039840F20071F3
:10594000C2F2000109680591C9680491FAF79FFC49
:105950000399049B0246059898472290229818B113
:10596000FFE7229825905BE04AF6F300C0F20000C2
:105970004FF47A71FFF73CFE2290229818B1FFE7AE
:10598000229825904CE049F6AC71C0F200010AA8BB
:1059900000902022FAF745FC00994AF6DA00C0F29E
:1059A000000002F087FB009840F20071C2F2000193
:1059B00009680291C9680191FAF769FC0099019B95
:1059C0000246029898472290229818B1FFE7229841
:1059D000259025E064204FF47A71FDF7D9FD4AF651
:1059E000F300C0F2000042F21071FFF701FE2290B6
:1059F0004AF63B00C0F2000040F6B831FFF7F8FD70
:105A00000990229848B9FFE7099830B1FFE74FF4B1
:105A10007A710846FDF7BCFDFFE722982590FFE765
:105A2000259826B080BD000080B586B06FF00400D8
:105A300004904AF64000C0F20000039040F200706B
:105A4000C2F2000000680290C068019003980090C4
:105A5000FAF71DFC0099019B0246029898470490B2
:105A6000049818B1FFE7049805900AE04AF6F3009D
:105A7000C0F200006421FFF7BBFD0490049805907C
:105A8000FFE7059806B080BD80B58EB06FF00400CA
:105A90000C9049F6CC71C0F2000104A800902022BD
:105AA000FAF7BFFB009840F20071C2F200010968EA
:105AB0000291C9680191FAF7EAFB0099019B02463D
:105AC000029898470C900C9818B1FFE70C980D902D
:105AD0002DE04FF47A70ADF80E00FFE7BDF80E0030
